{
  "contractName": "Fundraiser",
  "abi": [
    {
      "constant": true,
      "inputs": [],
      "name": "donationsCount",
      "outputs": [
        {
          "name": "",
          "type": "uint256"
        }
      ],
      "payable": false,
      "stateMutability": "view",
      "type": "function"
    },
    {
      "constant": true,
      "inputs": [],
      "name": "organization",
      "outputs": [
        {
          "name": "",
          "type": "address"
        }
      ],
      "payable": false,
      "stateMutability": "view",
      "type": "function"
    },
    {
      "constant": true,
      "inputs": [],
      "name": "owner",
      "outputs": [
        {
          "name": "",
          "type": "address"
        }
      ],
      "payable": false,
      "stateMutability": "view",
      "type": "function"
    },
    {
      "constant": false,
      "inputs": [
        {
          "name": "newOwner",
          "type": "address"
        }
      ],
      "name": "transferOwnership",
      "outputs": [],
      "payable": false,
      "stateMutability": "nonpayable",
      "type": "function"
    },
    {
      "constant": true,
      "inputs": [
        {
          "name": "",
          "type": "uint256"
        }
      ],
      "name": "donations",
      "outputs": [
        {
          "name": "time",
          "type": "uint256"
        },
        {
          "name": "exchange",
          "type": "uint256"
        },
        {
          "name": "value",
          "type": "uint256"
        }
      ],
      "payable": false,
      "stateMutability": "view",
      "type": "function"
    },
    {
      "anonymous": false,
      "inputs": [],
      "name": "DonationReceived",
      "type": "event"
    },
    {
      "anonymous": false,
      "inputs": [
        {
          "indexed": true,
          "name": "previousOwner",
          "type": "address"
        },
        {
          "indexed": true,
          "name": "newOwner",
          "type": "address"
        }
      ],
      "name": "OwnershipTransferred",
      "type": "event"
    },
    {
      "constant": false,
      "inputs": [
        {
          "name": "orgAddress",
          "type": "address"
        }
      ],
      "name": "setOrganization",
      "outputs": [],
      "payable": false,
      "stateMutability": "nonpayable",
      "type": "function"
    },
    {
      "constant": false,
      "inputs": [
        {
          "name": "exchangeRate",
          "type": "uint256"
        }
      ],
      "name": "donate",
      "outputs": [],
      "payable": true,
      "stateMutability": "payable",
      "type": "function"
    },
    {
      "constant": true,
      "inputs": [
        {
          "name": "donor",
          "type": "address"
        }
      ],
      "name": "donationIndexesForDonor",
      "outputs": [
        {
          "name": "",
          "type": "uint256[]"
        }
      ],
      "payable": false,
      "stateMutability": "view",
      "type": "function"
    }
  ],
  "bytecode": "0x6060604052336000806101000a81548173ffffffffffffffffffffffffffffffffffffffff021916908373ffffffffffffffffffffffffffffffffffffffff160217905550610881806100536000396000f30060606040526004361061008e576000357c0100000000000000000000000000000000000000000000000000000000900463ffffffff1680631f5225951461009357806323bd4d7a146100bc578063327bba69146101115780634e69149c1461019f5780638da5cb5b146101d8578063f14faf6f1461022d578063f2fde38b14610245578063f8626af81461027e575b600080fd5b341561009e57600080fd5b6100a66102c3565b6040518082815260200191505060405180910390f35b34156100c757600080fd5b6100cf6102c9565b604051808273ffffffffffffffffffffffffffffffffffffffff1673ffffffffffffffffffffffffffffffffffffffff16815260200191505060405180910390f35b341561011c57600080fd5b610148600480803573ffffffffffffffffffffffffffffffffffffffff169060200190919050506102ef565b6040518080602001828103825283818151815260200191508051906020019060200280838360005b8381101561018b578082015181840152602081019050610170565b505050509050019250505060405180910390f35b34156101aa57600080fd5b6101d6600480803573ffffffffffffffffffffffffffffffffffffffff1690602001909190505061038c565b005b34156101e357600080fd5b6101eb61042b565b604051808273ffffffffffffffffffffffffffffffffffffffff1673ffffffffffffffffffffffffffffffffffffffff16815260200191505060405180910390f35b6102436004808035906020019091905050610450565b005b341561025057600080fd5b61027c600480803573ffffffffffffffffffffffffffffffffffffffff169060200190919050506105d7565b005b341561028957600080fd5b61029f600480803590602001909190505061072c565b60405180848152602001838152602001828152602001935050505060405180910390f35b60025481565b600160009054906101000a900473ffffffffffffffffffffffffffffffffffffffff1681565b6102f7610765565b600360008373ffffffffffffffffffffffffffffffffffffffff1673ffffffffffffffffffffffffffffffffffffffff16815260200190815260200160002080548060200260200160405190810160405280929190818152602001828054801561038057602002820191906000526020600020905b81548152602001906001019080831161036c575b50505050509050919050565b6000809054906101000a900473ffffffffffffffffffffffffffffffffffffffff1673ffffffffffffffffffffffffffffffffffffffff163373ffffffffffffffffffffffffffffffffffffffff161415156103e757600080fd5b80600160006101000a81548173ffffffffffffffffffffffffffffffffffffffff021916908373ffffffffffffffffffffffffffffffffffffffff16021790555050565b6000809054906101000a900473ffffffffffffffffffffffffffffffffffffffff1681565b610458610779565b600160009054906101000a900473ffffffffffffffffffffffffffffffffffffffff1673ffffffffffffffffffffffffffffffffffffffff166108fc3073ffffffffffffffffffffffffffffffffffffffff16319081150290604051600060405180830381858888f1935050505015156104d157600080fd5b606060405190810160405280428152602001838152602001348152509050600360003373ffffffffffffffffffffffffffffffffffffffff1673ffffffffffffffffffffffffffffffffffffffff1681526020019081526020016000208054806001018281610540919061079b565b91600052602060002090016000600254909190915055506004805480600101828161056b91906107c7565b9160005260206000209060030201600083909190915060008201518160000155602082015181600101556040820151816002015550506002819055507fe554fffbd0e5c2a35b0a24fef85d4297554111caf74cc33cb4cc85a117bbe6e060405160405180910390a15050565b6000809054906101000a900473ffffffffffffffffffffffffffffffffffffffff1673ffffffffffffffffffffffffffffffffffffffff163373ffffffffffffffffffffffffffffffffffffffff1614151561063257600080fd5b600073ffffffffffffffffffffffffffffffffffffffff168173ffffffffffffffffffffffffffffffffffffffff161415151561066e57600080fd5b8073ffffffffffffffffffffffffffffffffffffffff166000809054906101000a900473ffffffffffffffffffffffffffffffffffffffff1673ffffffffffffffffffffffffffffffffffffffff167f8be0079c531659141344cd1fd0a4f28419497f9722a3daafe3b4186f6b6457e060405160405180910390a3806000806101000a81548173ffffffffffffffffffffffffffffffffffffffff021916908373ffffffffffffffffffffffffffffffffffffffff16021790555050565b60048181548110151561073b57fe5b90600052602060002090600302016000915090508060000154908060010154908060020154905083565b602060405190810160405280600081525090565b6060604051908101604052806000815260200160008152602001600081525090565b8154818355818115116107c2578183600052602060002091820191016107c191906107f9565b5b505050565b8154818355818115116107f4576003028160030283600052602060002091820191016107f3919061081e565b5b505050565b61081b91905b808211156108175760008160009055506001016107ff565b5090565b90565b61085291905b8082111561084e576000808201600090556001820160009055600282016000905550600301610824565b5090565b905600a165627a7a7230582062bad4c41b5bdac76409e858f89b4ac08da5c40d80a8f010d72b5633abb8f4390029",
  "source": "pragma solidity ^0.4.21;\n\nimport 'zeppelin-solidity/contracts/ownership/Ownable.sol';\n\n// Goal: Fundraiser is used to help create a mechanism for non-profit\n// oranganization to collect ethereum contributions. It records each\n// transaction allowing receipt generation.\ncontract Fundraiser is Ownable {\n  // the organization represents the address where funds are transfered\n  address public organization;\n\n  // struct to hold information of the transaction to recalculate\n  // the value at a later time\n  struct Donation {\n    uint256 time;\n    uint256 exchange;\n    uint256 value;\n  }\n\n  // number of donations received (really just used to make testing easier)\n  uint256 public donationsCount;\n\n  // retain donation indexes for each address\n  mapping(address => uint256[]) private donationIndexes;\n\n  // retain all the donation records\n  Donation[] public donations;\n\n  // notifies the client that the donation has been completed\n  event DonationReceived();\n\n  // update the organization's address\n  function setOrganization(address orgAddress) public onlyOwner {\n    organization = orgAddress;\n  }\n\n  // transfer the funds to the organization, create a new\n  // donation record, and emit the DonationReceived event\n  function donate(uint256 exchangeRate) public payable {\n    organization.transfer(address(this).balance);\n\n    Donation memory donation = Donation({value: msg.value, exchange: exchangeRate, time: now});\n    donationIndexes[msg.sender].push(donationsCount);\n    donationsCount = donations.push(donation); // push returns the new length\n\n    emit DonationReceived();\n  }\n\n  function donationIndexesForDonor(address donor) public view returns(uint256[]) {\n    return donationIndexes[donor];\n  }\n}\n",
  "sourcePath": "/Users/ksolo/Projects/sdjs/fundraiser/contracts/Fundraiser.sol",
  "compiler": {
    "name": "solc",
    "version": "0.4.21+commit.dfe3193c.Emscripten.clang"
  },
  "schemaVersion": "2.0.0",
  "updatedAt": "2018-04-02T04:30:50.571Z"
}